{
  "contractName": "MarketPlace",
  "abi": [
    {
      "inputs": [
        {
          "internalType": "address",
          "name": "_currencyTokenAddress",
          "type": "address"
        },
        {
          "internalType": "address",
          "name": "_itemTokenAddress",
          "type": "address"
        }
      ],
      "stateMutability": "nonpayable",
      "type": "constructor"
    },
    {
      "anonymous": false,
      "inputs": [
        {
          "indexed": false,
          "internalType": "uint256",
          "name": "post",
          "type": "uint256"
        },
        {
          "indexed": false,
          "internalType": "bytes32",
          "name": "status",
          "type": "bytes32"
        }
      ],
      "name": "TransactionStatusChange",
      "type": "event"
    },
    {
      "inputs": [
        {
          "internalType": "uint256",
          "name": "",
          "type": "uint256"
        }
      ],
      "name": "transactions",
      "outputs": [
        {
          "internalType": "address",
          "name": "seller",
          "type": "address"
        },
        {
          "internalType": "uint256",
          "name": "item",
          "type": "uint256"
        },
        {
          "internalType": "uint256",
          "name": "price",
          "type": "uint256"
        },
        {
          "internalType": "bytes32",
          "name": "status",
          "type": "bytes32"
        }
      ],
      "stateMutability": "view",
      "type": "function"
    },
    {
      "inputs": [
        {
          "internalType": "uint256",
          "name": "_transaction",
          "type": "uint256"
        }
      ],
      "name": "getTransaction",
      "outputs": [
        {
          "internalType": "address",
          "name": "",
          "type": "address"
        },
        {
          "internalType": "uint256",
          "name": "",
          "type": "uint256"
        },
        {
          "internalType": "uint256",
          "name": "",
          "type": "uint256"
        },
        {
          "internalType": "bytes32",
          "name": "",
          "type": "bytes32"
        }
      ],
      "stateMutability": "view",
      "type": "function"
    },
    {
      "inputs": [
        {
          "internalType": "uint256",
          "name": "_item",
          "type": "uint256"
        },
        {
          "internalType": "uint256",
          "name": "_price",
          "type": "uint256"
        }
      ],
      "name": "newTransaction",
      "outputs": [],
      "stateMutability": "nonpayable",
      "type": "function"
    },
    {
      "inputs": [
        {
          "internalType": "uint256",
          "name": "_transaction",
          "type": "uint256"
        }
      ],
      "name": "executeTransaction",
      "outputs": [],
      "stateMutability": "nonpayable",
      "type": "function"
    },
    {
      "inputs": [
        {
          "internalType": "uint256",
          "name": "_transaction",
          "type": "uint256"
        }
      ],
      "name": "cancelTransaction",
      "outputs": [],
      "stateMutability": "nonpayable",
      "type": "function"
    }
  ],
  "bytecode": "0x60806040523480156200001157600080fd5b506040516200101138038062001011833981810160405281019062000037919062000132565b816000806101000a81548173ffffffffffffffffffffffffffffffffffffffff021916908373ffffffffffffffffffffffffffffffffffffffff16021790555080600160006101000a81548173ffffffffffffffffffffffffffffffffffffffff021916908373ffffffffffffffffffffffffffffffffffffffff1602179055506000600281905550505062000179565b600080fd5b600073ffffffffffffffffffffffffffffffffffffffff82169050919050565b6000620000fa82620000cd565b9050919050565b6200010c81620000ed565b81146200011857600080fd5b50565b6000815190506200012c8162000101565b92915050565b600080604083850312156200014c576200014b620000c8565b5b60006200015c858286016200011b565b92505060206200016f858286016200011b565b9150509250929050565b610e8880620001896000396000f3fe608060405234801561001057600080fd5b50600436106100575760003560e01c80633380c0d81461005c57806333ea3dc8146100785780639ace38c2146100ab578063ee22610b146100de578063faadc18e146100fa575b600080fd5b61007660048036038101906100719190610956565b610116565b005b610092600480360381019061008d9190610956565b610393565b6040516100a294939291906109ec565b60405180910390f35b6100c560048036038101906100c09190610956565b610453565b6040516100d594939291906109ec565b60405180910390f35b6100f860048036038101906100f39190610956565b6104a3565b005b610114600480360381019061010f9190610a31565b610753565b005b6000600360008381526020019081526020016000206040518060800160405290816000820160009054906101000a900473ffffffffffffffffffffffffffffffffffffffff1673ffffffffffffffffffffffffffffffffffffffff1673ffffffffffffffffffffffffffffffffffffffff16815260200160018201548152602001600282015481526020016003820154815250509050806000015173ffffffffffffffffffffffffffffffffffffffff163373ffffffffffffffffffffffffffffffffffffffff161461021e576040517f08c379a000000000000000000000000000000000000000000000000000000000815260040161021590610af4565b60405180910390fd5b7f4f50454e00000000000000000000000000000000000000000000000000000000816060015114610284576040517f08c379a000000000000000000000000000000000000000000000000000000000815260040161027b90610b86565b60405180910390fd5b600160009054906101000a900473ffffffffffffffffffffffffffffffffffffffff1673ffffffffffffffffffffffffffffffffffffffff166323b872dd30836000015184602001516040518463ffffffff1660e01b81526004016102eb93929190610ba6565b600060405180830381600087803b15801561030557600080fd5b505af1158015610319573d6000803e3d6000fd5b505050507f43414e43454c4c4544000000000000000000000000000000000000000000000060036000848152602001908152602001600020600301819055507f166a7ea7b18bc6b2fbc6701593928311c3157211d65b48b0d45d171eca029532826040516103879190610c03565b60405180910390a15050565b6000806000806000600360008781526020019081526020016000206040518060800160405290816000820160009054906101000a900473ffffffffffffffffffffffffffffffffffffffff1673ffffffffffffffffffffffffffffffffffffffff1673ffffffffffffffffffffffffffffffffffffffff1681526020016001820154815260200160028201548152602001600382015481525050905080600001518160200151826040015183606001519450945094509450509193509193565b60036020528060005260406000206000915090508060000160009054906101000a900473ffffffffffffffffffffffffffffffffffffffff16908060010154908060020154908060030154905084565b6000600360008381526020019081526020016000206040518060800160405290816000820160009054906101000a900473ffffffffffffffffffffffffffffffffffffffff1673ffffffffffffffffffffffffffffffffffffffff1673ffffffffffffffffffffffffffffffffffffffff168152602001600182015481526020016002820154815260200160038201548152505090507f4f50454e0000000000000000000000000000000000000000000000000000000081606001511461059f576040517f08c379a000000000000000000000000000000000000000000000000000000000815260040161059690610c9c565b60405180910390fd5b60008054906101000a900473ffffffffffffffffffffffffffffffffffffffff1673ffffffffffffffffffffffffffffffffffffffff166323b872dd33836000015184604001516040518463ffffffff1660e01b815260040161060493929190610ba6565b6020604051808303816000875af1158015610623573d6000803e3d6000fd5b505050506040513d601f19601f820116820180604052508101906106479190610cf4565b50600160009054906101000a900473ffffffffffffffffffffffffffffffffffffffff1673ffffffffffffffffffffffffffffffffffffffff166323b872dd303384602001516040518463ffffffff1660e01b81526004016106ab93929190610ba6565b600060405180830381600087803b1580156106c557600080fd5b505af11580156106d9573d6000803e3d6000fd5b505050507f455845435554454400000000000000000000000000000000000000000000000060036000848152602001908152602001600020600301819055507f166a7ea7b18bc6b2fbc6701593928311c3157211d65b48b0d45d171eca029532826040516107479190610d47565b60405180910390a15050565b600160009054906101000a900473ffffffffffffffffffffffffffffffffffffffff1673ffffffffffffffffffffffffffffffffffffffff166323b872dd3330856040518463ffffffff1660e01b81526004016107b293929190610ba6565b600060405180830381600087803b1580156107cc57600080fd5b505af11580156107e0573d6000803e3d6000fd5b5050505060405180608001604052803373ffffffffffffffffffffffffffffffffffffffff1681526020018381526020018281526020017f4f70656e0000000000000000000000000000000000000000000000000000000081525060036000600254815260200190815260200160002060008201518160000160006101000a81548173ffffffffffffffffffffffffffffffffffffffff021916908373ffffffffffffffffffffffffffffffffffffffff1602179055506020820151816001015560408201518160020155606082015181600301559050506001600260008282546108cb9190610d9d565b925050819055507f166a7ea7b18bc6b2fbc6701593928311c3157211d65b48b0d45d171eca02953260016002546109029190610dd1565b60405161090f9190610e2b565b60405180910390a15050565b600080fd5b6000819050919050565b61093381610920565b811461093e57600080fd5b50565b6000813590506109508161092a565b92915050565b60006020828403121561096c5761096b61091b565b5b600061097a84828501610941565b91505092915050565b600073ffffffffffffffffffffffffffffffffffffffff82169050919050565b60006109ae82610983565b9050919050565b6109be816109a3565b82525050565b6109cd81610920565b82525050565b6000819050919050565b6109e6816109d3565b82525050565b6000608082019050610a0160008301876109b5565b610a0e60208301866109c4565b610a1b60408301856109c4565b610a2860608301846109dd565b95945050505050565b60008060408385031215610a4857610a4761091b565b5b6000610a5685828601610941565b9250506020610a6785828601610941565b9150509250929050565b600082825260208201905092915050565b7f4552524f523a205472616e73616374696f6e206d6179206f6e6c79206265206360008201527f616e63656c6c6564206279207468652053656c6c65722e000000000000000000602082015250565b6000610ade603783610a71565b9150610ae982610a82565b604082019050919050565b60006020820190508181036000830152610b0d81610ad1565b9050919050565b7f4552524f523a2043616e206e6f742063616e63656c2e2e2e746869732074726160008201527f6e73616374696f6e277320737461747573206973206e6f7420274f70656e272e602082015250565b6000610b70604083610a71565b9150610b7b82610b14565b604082019050919050565b60006020820190508181036000830152610b9f81610b63565b9050919050565b6000606082019050610bbb60008301866109b5565b610bc860208301856109b5565b610bd560408301846109c4565b949350505050565b7f43414e43454c4c45440000000000000000000000000000000000000000000000815250565b6000604082019050610c1860008301846109c4565b610c2460208301610bdd565b92915050565b7f4552524f523a2074686973207472616e73616374696f6e27732073746174757360008201527f206973206e6f7420274f50454e272e0000000000000000000000000000000000602082015250565b6000610c86602f83610a71565b9150610c9182610c2a565b604082019050919050565b60006020820190508181036000830152610cb581610c79565b9050919050565b60008115159050919050565b610cd181610cbc565b8114610cdc57600080fd5b50565b600081519050610cee81610cc8565b92915050565b600060208284031215610d0a57610d0961091b565b5b6000610d1884828501610cdf565b91505092915050565b7f4558454355544544000000000000000000000000000000000000000000000000815250565b6000604082019050610d5c60008301846109c4565b610d6860208301610d21565b92915050565b7f4e487b7100000000000000000000000000000000000000000000000000000000600052601160045260246000fd5b6000610da882610920565b9150610db383610920565b9250828201905080821115610dcb57610dca610d6e565b5b92915050565b6000610ddc82610920565b9150610de783610920565b9250828203905081811115610dff57610dfe610d6e565b5b92915050565b7f4f50454e00000000000000000000000000000000000000000000000000000000815250565b6000604082019050610e4060008301846109c4565b610e4c60208301610e05565b9291505056fea2646970667358221220f81627c2036d125be0387a11bf64b477cecf10649dfcfb80b698c384df3a564d64736f6c63430008110033",
  "immutableReferences": {},
  "source": "/**\n     * @title Marketplace (Classifieds)\n     * @notice Implements the classifieds board market. The market will be governed\n     * by an ERC20 token as currency; and an ERC721 token\n     * that represents the ownership of the items being transacted.\n     * Only posts for selling items are implemented.\n     * The item tokenization is responsibility of the ERC721 contract  which should encode item details.\n */\n// SPDX-License-Identifier: MIT\n\npragma solidity ^0.8.0;\n\nimport \"@openzeppelin/contracts/access/Ownable.sol\";\nimport \"@openzeppelin/contracts/token/ERC20/IERC20.sol\";\nimport \"@openzeppelin/contracts/token/ERC721/IERC721.sol\";\n\ncontract MarketPlace {\n    event TransactionStatusChange(uint256 post, bytes32 status);\n\n    IERC20 currencyToken;\n    IERC721 itemToken;\n    uint256 transactionCounter;\n\n    struct Transaction {\n        address seller;\n        uint256 item;\n        uint256 price;\n        bytes32 status;\n    }\n\n    mapping(uint256 => Transaction) public transactions;\n\n    // Default\n    constructor (address _currencyTokenAddress, address _itemTokenAddress) {\n        currencyToken = IERC20(_currencyTokenAddress);\n        itemToken = IERC721(_itemTokenAddress);\n        transactionCounter = 0;\n    }\n\n    /**\n         * @dev Returns the details for a transaction.\n         * @param _transaction The id for the transaction.\n     */\n    function getTransaction(uint256 _transaction)\n        public\n        virtual\n        view\n        returns(address, uint256, uint256, bytes32)\n    {\n        Transaction memory transaction = transactions[_transaction];\n        return (transaction.seller, transaction.item, transaction.price, transaction.status);\n    }\n\n    /**\n         * @dev Opens a new transaction. Puts _item in escrow.\n         * @param _item The id for the item to transaction.\n         * @param _price The amount of currency for which to transact with the item.\n     */\n    function newTransaction(uint256 _item, uint256 _price)\n        public\n        virtual\n    {\n        itemToken.transferFrom(msg.sender, address(this), _item);\n        transactions[transactionCounter] = Transaction({\n            seller: msg.sender,\n            item: _item,\n            price: _price,\n            status: \"Open\"\n        });\n\n        transactionCounter += 1;\n        emit TransactionStatusChange(transactionCounter - 1, \"OPEN\");\n    }\n\n    /**\n     * @dev Executes a transaction. Must have approved this contract to transfer the\n     * amount of currency specified to the seller. Transfers ownership of the\n     * item to the buyer.\n     * @param _transaction The id of an existing trade\n     */\n    function executeTransaction(uint256 _transaction)\n        public\n        virtual\n    {\n        Transaction memory transaction = transactions[_transaction];\n        require(\n            transaction.status == \"OPEN\",\n            \"ERROR: this transaction's status is not 'OPEN'.\"\n        );\n        currencyToken.transferFrom(msg.sender, transaction.seller, transaction.price);\n        itemToken.transferFrom(address (this), msg.sender, transaction.item);\n        transactions[_transaction].status = \"EXECUTED\";\n        emit TransactionStatusChange(_transaction, \"EXECUTED\");\n    }\n\n    /**\n        * @dev Cancels a transaction by the seller.\n        * @param _transaction The transaction to be cancelled.\n     */\n    function cancelTransaction(uint256 _transaction)\n        public\n        virtual\n    {\n        Transaction memory transaction = transactions[_transaction];\n        require(\n            msg.sender == transaction.seller,\n            \"ERROR: Transaction may only be cancelled by the Seller.\"\n        );\n        require(\n            transaction.status == \"OPEN\",\n            \"ERROR: Can not cancel...this transaction's status is not 'Open'.\"\n        );\n        itemToken.transferFrom(address(this), transaction.seller, transaction.item);\n        transactions[_transaction].status = \"CANCELLED\";\n        emit TransactionStatusChange(_transaction, \"CANCELLED\");\n    }\n\n}",
  "sourcePath": "/Users/nerdpower/Library/Mobile Documents/com~apple~CloudDocs/CloudStorage/Ethereum_Projects/ERC-721_Market/contracts/market.sol",
  "compiler": {
    "name": "solc",
    "version": "0.8.17+commit.8df45f5f.Emscripten.clang"
  },
  "schemaVersion": "3.4.10",
  "updatedAt": "2022-11-02T02:00:10.456Z",
  "devdoc": {
    "kind": "dev",
    "methods": {
      "cancelTransaction(uint256)": {
        "details": "Cancels a transaction by the seller.",
        "params": {
          "_transaction": "The transaction to be cancelled."
        }
      },
      "executeTransaction(uint256)": {
        "details": "Executes a transaction. Must have approved this contract to transfer the amount of currency specified to the seller. Transfers ownership of the item to the buyer.",
        "params": {
          "_transaction": "The id of an existing trade"
        }
      },
      "getTransaction(uint256)": {
        "details": "Returns the details for a transaction.",
        "params": {
          "_transaction": "The id for the transaction."
        }
      },
      "newTransaction(uint256,uint256)": {
        "details": "Opens a new transaction. Puts _item in escrow.",
        "params": {
          "_item": "The id for the item to transaction.",
          "_price": "The amount of currency for which to transact with the item."
        }
      }
    },
    "version": 1
  },
  "userdoc": {
    "kind": "user",
    "methods": {},
    "version": 1
  }
}